:100000000C9468000C9490000C9490000C94900058
:100010000C9490000C9490000C9490000C94900020
:100020000C9490000C9490000C945C070C943A068D
:100030000C9487050C9490060C9490000C949000FE
:100040000C943D050C9490000C9490000C9490003E
:100050000C9490000C9490000C9490000C949000E0
:100060000C9490000C9490000A0B0C0D0E0F0000E5
:100070000000240027002A000000000025002800BE
:100080002B000000000023002600290004040404C3
:100090000404040402020202020203030303030332
:1000A000010204081020408001020408102001020F
:1000B00004081020000000080002010000030407EB
:1000C0000000000000000000000102030405A20877
:1000D00011241FBECFEFD8E0DEBFCDBF22E0A6E7E0
:1000E000B1E001C01D92A531B207E1F711E0A0E037
:1000F000B1E0E0EBF6E102C005900D92A637B10742
:10010000D9F710E0C8E6D0E004C02197FE010E94B4
:10011000500BC736D107C9F70E94D3080C94560B71
:100120000C940000833081F028F4813099F0823003
:10013000A9F008958730A9F08830C9F08430B1F46F
:10014000809180008F7D03C0809180008F778093A5
:100150008000089584B58F7784BD089584B58F7D20
:10016000FBCF8091B0008F778093B000089580918D
:10017000B0008F7DF9CFCF93DF93282F30E0F901C6
:10018000EC54FF4F8491F901E056FF4FD491F901EF
:10019000E457FF4FC491CC23A1F081110E9492003B
:1001A000EC2FF0E0EE0FFF1FEE57FF4FA591B4913B
:1001B000EC91ED2381E090E009F480E0DF91CF91B4
:1001C000089580E090E0FACF1F93CF93DF93282F1C
:1001D00030E0F901EC54FF4F8491F901E056FF4FF4
:1001E000D491F901E457FF4FC491CC23A9F0162F05
:1001F00081110E949200EC2FF0E0EE0FFF1FE858F3
:10020000FF4FA591B4918FB7F894EC91111108C0EC
:10021000D095DE23DC938FBFDF91CF911F9108959E
:10022000DE2BF8CFCF93DF9390E0FC01E056FF4F39
:10023000249184579F4FFC0184918823D1F090E052
:10024000880F991FFC01E259FF4FA591B491FC0161
:10025000E858FF4FC591D491623071F49FB7F8947C
:100260003C91822F809583238C93E8812E2B2883C9
:100270009FBFDF91CF9108958FB7F894EC912E2B0B
:100280002C938FBFF6CF3FB7F8948091D101909116
:10029000D201A091D301B091D40126B5A89B05C08D
:1002A0002F3F19F00196A11DB11D3FBFBA2FA92FF5
:1002B000982F8827BC01CD01620F711D811D911DF2
:1002C00043E0660F771F881F991F4A95D1F708955D
:1002D0008F929F92AF92BF92CF92DF92EF92FF9256
:1002E0004B015C010E9443016B017C010E944301B0
:1002F0006C197D098E099F09683E7340810591053F
:10030000A8F321E0821A9108A108B10888EEC80E6E
:1003100083E0D81EE11CF11C81149104A104B104F6
:1003200029F7FF90EF90DF90CF90BF90AF909F9014
:100330008F9008952FB7F8946091CD017091CE0100
:100340008091CF019091D0012FBF089580918800B6
:100350009091890018161906E4F530E020E064EC6D
:1003600070E040918600509187002417350788F58A
:1003700050E040E097FD0BC040918600509187000F
:100380004817590710F54091860050918700509307
:100390008B0040938A0050E040E097FD0BC04091F5
:1003A0008600509187004817590788F440918600CD
:1003B000509187005093890040938800FB0131974A
:1003C000F1F72F5F3F4F0197CCCFAC01E0CFAC01ED
:1003D000F1CF0895FC018281938189130C94E4008C
:1003E0000895CF93DF93EC018B810E94E4008A8D06
:1003F0009B8D8330910528F0880F991F04970197F2
:10040000F1F7DF91CF91089561E00C94F1018EBD79
:1004100000000DB407FEFDCF8EB508950F931F9316
:10042000FC01048115812681378140E059E06DE3AC
:1004300070E090E0041715072607370740F476951B
:100440006795579547959F5F9630A1F797E0292FBD
:10045000206A2695909591702CBD9DBD60E0CF01DE
:100460001F910F910C94F1010F931F93CF93DF9382
:10047000EC01062F142F0E940E02802F80620E9432
:1004800007028887812F0E940702CE01DF91CF915A
:100490001F910F910C940402FC01478541FD09C096
:1004A0004260478760E00E9434028CE097E2019747
:1004B000F1F70895EF92FF920F931F93CF93DF937D
:1004C0007C01D62F142F8091EA01C0E0811106C073
:1004D000C091DF01C61708F4DC2FCD1B86ED91E03B
:1004E0000E940E02812F0E9407028093DE01870185
:1004F000D15030F0F80181918F010E940702F8CFAE
:10050000C15020F080E00E940702FACF86ED91E012
:10051000DF91CF911F910F91FF90EF900C94040207
:10052000EF92FF920F931F93CF93DF937C01809103
:10053000EA01C0E0D0E2811107C0C091DF01DC2FE9
:10054000C13208F0D0E2CD1B86ED91E00E940E0290
:1005500081E60E9407028093DE018701D15038F0C6
:100560008FEF0E940702F80181938F01F7CFC150EE
:1005700020F08FEF0E940702FACF86ED91E00E94F3
:10058000040240E467E086ED91E0DF91CF911F9196
:100590000F91FF90EF900C9434021F93CF93DF9351
:1005A000EC01162F0E940E02812F80620E9407022A
:1005B0008887CE01DF91CF911F910C940402CF92D6
:1005C000DF92EF92FF9240EA62E084E091E00E94C5
:1005D0005A0261E086ED91E00E94EA010E949A01D0
:1005E0006B017C016FEF86ED91E00E94CD0280915E
:1005F000DE018073A1F40E949A016C197D098E09B5
:100600009F09603671058105910560F381E0809353
:10061000EB0180E0FF90EF90DF90CF90089560E0D5
:1006200086ED91E00E94EA0140E767E086ED91E007
:100630000E9434028091DE0184FF06C061EE86EDE7
:1006400091E00E94CD02E5CF81E0E4CFCF93DF932C
:10065000EC010E940E0280E50E940702888783E772
:100660000E940702CE01DF91CF910C940402DF9229
:10067000EF92FF920F931F93CF93DF938C01C62FBE
:10068000D42EE52EF22E0E940E028C2F80620E9444
:100690000702F8018087CD2DDE2DFA94FFEFFF16BB
:1006A00021F089910E940702F8CFC801DF91CF9114
:1006B0001F910F91FF90EF90DF900C9404021F9315
:1006C000CF93DF93EC01162F0E940E02812F0E9420
:1006D000070288878FEF0E940702182FCE010E9421
:1006E0000402812FDF91CF911F91089560E086ED84
:1006F00091E00E94EA018091EC019091ED0183303C
:10070000910528F0880F991F04970197F1F78091C0
:10071000E801882329F061EE86ED91E00E94CD0288
:100720004091E5014E7F4093E50160E086ED91E068
:100730000E94340262E086ED91E00E945F03E8ECE3
:10074000F0E0E49141E050E001C0440FEA95EAF79F
:10075000482B62E086ED91E00C9434020F931F93D6
:10076000CF938C01C62F62E00E945F03EC2FF0E074
:10077000E853FF4FE49141E050E001C0440FEA9597
:10078000EAF7482B62E0C801CF911F910F910C94BA
:100790003402EF92FF920F931F93CF93DF93CDB765
:1007A000DEB760970FB6F894DEBF0FBECDBF0FE681
:1007B00010E0F80180818E7D808384B58F7784BDC1
:1007C0000E9476038CE7898388E68A8382E58B839F
:1007D0008DE48C8384E58D831E821F82188686EDCE
:1007E000E82E81E0F82EF7012389AE014F5F5F4FBD
:1007F0006AE0C7010E943703F7012389AE014F5F0A
:100800005F4F60E1C7010E94370381E789879DEC54
:100810009A878BEA8B879C878D871E861F86188A0E
:10082000E9E6F0E06491F7012389AE01475F5F4F8D
:10083000C7010E94370361E0C7010E94AE03109216
:10084000C5011092C401E1E0F1E081E08083818381
:100850009CE7E92EF12C80E4F701808384EF91E09E
:1008600090938700809386000E94A601E0E8F0E064
:1008700080818F77808380818F7C8083F701808166
:100880008F7D8083EBE7F0E0808185608083EAE7FD
:10089000F0E096E090838081806A8083F801908305
:1008A00060960FB6F894DEBF0FBECDBFDF91CF913B
:1008B0001F910F91FF90EF9008950F931F93CF9387
:1008C000DF93EC018B0166E00E945F03877D0230BD
:1008D0001105E1F045E550E060E070E04E8B5F8B84
:1008E000688F798F10E0182B412F66E0CE010E94AF
:1008F000340266E0CE010E945F0391E0811390E034
:10090000892FDF91CF911F910F9108954BE950E00E
:1009100060E070E04E8B5F8B688F798F10E2E3CFE1
:10092000CF93DF93EC010E944C024F8541604F87CB
:1009300060E0CE010E94340240E767E0CE010E94F1
:10094000340261E0CE010E94EA018989882351F0D6
:10095000AE01465F5F4F2B896AE0CE01DF91CF91F8
:100960000C94370362E0CE010E945F03E8ECF0E0F4
:10097000E49121E030E001C0220FEA95EAF72095EA
:10098000422F482362E0CE010E943402198ADF918F
:10099000CF910895EF92FF920F931F93CF93DF9320
:1009A000CDB7DEB760970FB6F894DEBF0FBECDBFF0
:1009B0000FE610E0F80180818B7F808310927A002F
:1009C00010927B00E1E0F1E081E08083818384EF9D
:1009D00091E0909387008093860081E789839DEC66
:1009E0009A838BEA8B839C838D831E821F82188659
:1009F00086EDE82E81E0F82EF7012389AE014F5FE6
:100A00005F4F6AE0C7010E943703F7012389AE01F7
:100A10004F5F5F4F60E1C7010E9437038CE7898712
:100A200088E68A8782E58B878DE48C8784E58D87CD
:100A30001E861F86188AE9E6F0E06491F701238993
:100A4000AE01475F5F4FC7010E94370361E0C701F6
:100A50000E94AE03C7010E94900480E2F8018083E7
:100A600060960FB6F894DEBF0FBECDBFDF91CF9179
:100A70001F910F91FF90EF9008951F920F920FB664
:100A80000F9211242F933F938F939F93AF93BF9314
:100A90008091CD019091CE01A091CF01B091D00174
:100AA0003091CC0126E0230F2D3758F50296A11D79
:100AB000B11D2093CC018093CD019093CE01A093E2
:100AC000CF01B093D0018091D1019091D201A0913A
:100AD000D301B091D4010196A11DB11D8093D10124
:100AE0009093D201A093D301B093D401BF91AF9161
:100AF0009F918F913F912F910F900FBE0F901F905C
:100B0000189529E8230F0396A11DB11DD2CF1F927E
:100B10000F920FB60F9211240F931F932F933F93B1
:100B20004F935F936F937F938F939F93AF93BF93F5
:100B3000CF93DF93EF93FF93309178008091C301BF
:100B40002091C401E1E2E89FC00111248F579E4F1C
:100B5000820F911DDC013C93C0917900309100011E
:100B6000832F90E020918001A22FB0E041E050E07F
:100B700060E070E0022E04C0440F551F661F771F0F
:100B80000A94D2F7F091C3018C01EF9F000D111D63
:100B90001124F801EF57FE4FC0FF56C0D0814D2BF6
:100BA0004083119641E050E060E070E004C0440FE3
:100BB000551F661F771FAA95D2F7E091C301C1FFA9
:100BC00047C011E2E19F800D911D1124FC01EF57F8
:100BD000FE4F8081482B40832E5F283008F044C0B0
:100BE000209380018091C4018F5F8093C401809124
:100BF000C4018931A0F089E1809300011092800145
:100C00001092C401E091C30191E0E927F0E0EF5FA9
:100C1000FE4F10828091C30189278093C301FF9109
:100C2000EF91DF91CF91BF91AF919F918F917F9184
:100C30006F915F914F913F912F911F910F910F9065
:100C40000FBE0F901F901895409550814523A8CF57
:100C5000A1E2EA9F800D911D1124FC01EF57FE4F88
:100C6000409580814823B7CF109280013F5F309339
:100C70000001B8CF1F920F920FB60F9211242F933D
:100C80003F934F935F936F937F938F939F93AF9314
:100C9000BF93CF93EF93FF93E091C301C1E0EC27A3
:100CA000F0E0EF5FFE4F8081811128C08091C30189
:100CB0008C2780937F0180916F008D7F80936F00E0
:100CC000789480917F0121E2829FC001112440EB42
:100CD00060E28F579E4F0E945A0261E086ED91E0DC
:100CE0000E94EA01F894E0917F01F0E0EF5FFE4F8F
:100CF000C08380916F00826080936F00FF91EF91BD
:100D0000CF91BF91AF919F918F917F916F915F91A3
:100D10004F913F912F910F900FBE0F901F901895FC
:100D20001F920F920FB60F9211242F933F934F9360
:100D30005F936F937F938F939F93EF93FF93E091D4
:100D4000C301F0E0EF5FFE4F80818823A9F080911E
:100D5000C30191E089278093C301FF91EF919F9197
:100D60008F917F916F915F914F913F912F910F9054
:100D70000FBE0F901F901895E091C30131E23E9F86
:100D8000F0011124EF57FE4F80917D0190917E017B
:100D9000E80FF91F408150E050937C0140937B01A4
:100DA0006091C3018091000190E020918001FC01DD
:100DB000369FE00DF11D1124EF57FE4F608170E06A
:100DC000022E02C0759567950A94E2F760FF05C090
:100DD000516050937C0140937B0131E0320F30939E
:100DE00080016091C30140917B0150917C0171E2CF
:100DF000679F800D911D1124FC01EF57FE4F8081EC
:100E000090E002C0959587953A95E2F780FF4CC037
:100E1000526050937C0140937B012E5F20938001B0
:100E20003091030180917B0190917C01432F032E2F
:100E3000000C550B37FF3AC051954195510902C03E
:100E4000969587954A95E2F790938B0080938A0058
:100E50009093890080938800283038F010928001A8
:100E6000809100018F5F8093000180917D019091BE
:100E70007E01019690937E0180937D01499708F44D
:100E80006CCF89E1809300011092800110927E0165
:100E900010927D01E091C301F0E0EF5FFE4F91E021
:100EA00090838091C30156CF5D7FB3CF02C0880F7E
:100EB000991F3A95E2F7C8CF1F920F920FB60F9283
:100EC00011242F933F934F935F936F937F938F934F
:100ED0009F93AF93BF93CF93DF93EF93FF93809153
:100EE0007A018F5F80937A018091780190917901E6
:100EF0000196909379018093780180917A018031F5
:100F000008F456C0E091C301C1E0EC27F0E0EF5FC8
:100F1000FE4F8081882309F47CC08091C50188231D
:100F200009F477C06FEF86ED91E00E94CD02209129
:100F3000DE0130E0359527952770263008F44BC048
:100F4000809177018F5F8093770180917701833360
:100F500098F0109277010E94A6011092C50180912D
:100F60006F008E7F80936F0084B58F7784BD8091F2
:100F700080008F748093800010927A0180917801B4
:100F8000909179018097A0F08091C501882381F02C
:100F9000E091C30181E2E89FF0011124EF57FE4F79
:100FA0008081880F880F87BD109279011092780197
:100FB000FF91EF91DF91CF91BF91AF919F918F9171
:100FC0007F916F915F914F913F912F910F900FBE45
:100FD0000F901F9018958091C3018C2790916F00FE
:100FE0009F7D90936F007894C82FD0E021E2829F7C
:100FF000C00111248F579E4F0E949002CF5FDE4F99
:1010000018821092770180916F00806280936F0048
:101010009CCF8091C5018111AFCF6FEF86ED91E03C
:101020000E94CD028091DE0190E0959587958770B2
:10103000863008F0A1CF80916F008F7D80936F0084
:10104000789481E891E00E9490028091810182373A
:1010500081F480918201823531F48091D501823012
:1010600010F40E94C90380916F00806280936F002A
:1010700083CF81E08093C50180918000806B809355
:1010800080002091030180918800909189001216C0
:101090009CF502C0969587952A95E2F7883C9105C4
:1010A000A8F5E1E8F1E00196893C910510F088ECA3
:1010B00090E0819321E0E13AF207A9F7E2EAF1E05A
:1010C0000196893C910510F088EC90E0819321E035
:1010D000E23CF207A9F71092C301109201011092AD
:1010E00002011092C40180916F00816080936F00B3
:1010F00084B5806884BDB7CF332721950CF4309533
:1011000002C0880F991F2A95E2F7C8CF21EA31E083
:10111000E1E8F1E00197873C910511F488EC90E05B
:1011200081932E173F07B1F7E2EAF1E00197873C80
:10113000910511F488EC90E0819321E0E23CF20704
:10114000A9F7C9CFE7EFF1E087E0828388E08383E6
:1011500080E896E9A8E9B0E084839583A683B78305
:1011600080E28187108A118A85E0838B81E0848BFD
:1011700045E050E060E070E0428F538F648F758FE0
:1011800024EF31E0318320831286F093F601E0935F
:10119000F5019EE1A6EDB1E001900D929A95E1F77F
:1011A0008093D5010895CF93DF93CDB7DEB76897CD
:1011B0000FB6F894DEBF0FBECDBF789484B58260C1
:1011C00084BD84B5816084BD85B5826085BD85B5EB
:1011D000816085BD80916E00816080936E00109269
:1011E00081008091810082608093810080918100E4
:1011F0008160809381008091800081608093800075
:101200008091B10084608093B1008091B0008160D2
:101210008093B00080917A00846080937A008091FE
:101220007A00826080937A0080917A008E7F80932A
:101230007A0080917A00806880937A001092C100D1
:101240000091F5011091F601FFB6F8948091C60166
:10125000811127C0E6E9F0E08491EAEAF0E0949198
:10126000E82FF0E0EE0FFF1FE259FF4FA591B49178
:10127000EC91E92321F461E08AE00E94E40061E05E
:101280008AE00E9412018CB580618CBD8CB58064AF
:101290008CBD61E08DE00E94120161E08BE00E9454
:1012A00012018091C6018F5F8093C601FFBEF801D5
:1012B00082818F3F09F48DC093819F3F09F489C0DB
:1012C000891741F061E00E94120161E0F801838119
:1012D0000E94120160E0C8010E94EA0161E0C801B9
:1012E0000E94F10165E070E080E090E00E946801FA
:1012F0004FE564E0C8010E94340270E060E0C8017C
:101300000E945D046DE1C8010E945F03F82EC801D0
:101310000E9426036DE1C8010E945F0391E0F8126C
:1013200090E0F801908B882351F0F81203C0C801B7
:101330000E94260340E06DE1C8010E943402F801DA
:10134000128A40E06CE1C8010E943402F801148A5C
:101350004FE361E0C8010E94340243E062E0C8014B
:101360000E94340280E2F801818781E1F82EF801C1
:1013700041856F2DC8010E943402F394F7E1FF12FA
:10138000F6CF43E063E0C8010E94340285E0F80133
:10139000838B4CE465E0C8010E94340240E767E0BB
:1013A000C8010E94340262EEC8010E94CD0261EEC3
:1013B000C8010E94CD024CE060E0C8010E943402E6
:1013C00060E0C8010E945F03F8018787C8010E949E
:1013D0004C0261E086E00E94120161E089E00E9417
:1013E000120161E08AE00E94120162E08FE00E9437
:1013F000120162E080E10E94120162E081E10E943C
:10140000120162E082E10E94120162E084E00E9427
:10141000120141E065E08091F5019091F6010E9492
:1014200034020091F5011091F60140E061E0C8013D
:101430000E943402F8018289882361F06DE1C801BD
:101440000E945F03482F4D7F6DE1C8010E94340266
:10145000F801128A62E070E08091F5019091F60146
:101460000E945D048091F5019091F601FC01478591
:10147000437F4860478760E00E9434020091F50195
:101480001091F60181E789839DEC9A838BEA8B8327
:101490009C838D831E821F821886F8012389AE01EA
:1014A0004F5F5F4F6AE0C8010E943703F80123894C
:1014B000AE014F5F5F4F60E1C8010E9437030091AA
:1014C000F5011091F6018CE7898788E68A8782E525
:1014D0008B878DE48C8784E58D871E861F86188A0E
:1014E000E9E6F0E06491F8012389AE01475F5F4FC0
:1014F000C8010E94370361E0C8010E94AE03009159
:10150000F5011091F601E091D50188E0E89FF00126
:101510001124EA5EFE4F8081898B81818A8B8281D2
:101520008B8B83818C8B84818D8B85818E8B868147
:101530008F8B8781888FEAE6F0E0649121E0AE012D
:101540004F5E5F4FC8010E94370362E0C8010E94EE
:10155000AE038091F5019091F6010E94900484EF12
:1015600091E0909387008093860080EB80938000C9
:101570008091800082608093800089E18093810067
:101580000E94CA041092030100E010E0FF24F394CB
:101590008FE00E94BB00892B09F051C08091CB01E4
:1015A000811104C0F092CB010E94C90380E10E9426
:1015B000BB00892B09F04DC00E949A018090C701A1
:1015C0009090C801A090C901B090CA01681979092A
:1015D0008A099B09693C71058105910578F0809124
:1015E00003018F5F809303010E949A016093C701FA
:1015F0007093C8018093C9019093CA0182E10E944F
:10160000BB00892B09F042C08091CB0181110AC037
:101610000E9476030E94DF020E94DF0286ED91E0C5
:101620000E94900468EC70E080E090E00E94680105
:101630000115110509F4ACCF0E940000A9CF8091DB
:10164000CB01882309F4B2CF0E94CA041092CB01C7
:10165000ADCF81E10E94BB00892B81F60E949A01E7
:101660008090C7019090C801A090C901B090CA01B4
:10167000681979098A099B09693C710581059105F9
:1016800008F4BCCF809103018150ACCF84E00E946C
:10169000BB00892B69F660ED77E080E090E0C6CF73
:1016A000EE0FFF1F0590F491E02D0994F894FFCF01
:1016B000190101FF725271CDABCDAB0000007C6807
:1016C000524D540000003268524D540000003C68F6
:1016D000524D540000004668524D540000005068BE
:1016E000524D540000005A68524D540000002068CA
:1016F000524D540000006E68524D540000004B687B
:10170000524D540000004168524D5400000055688D
:10171000524D540000005F68524D5400000069684B
:06172000524D54000000D0
:00000001FF
